:100000000C94A7000C94C4000C94C4000C94C4007D
:100010000C94C4000C94C4000C94C4000C94C40050
:100020000C94C4000C94C4000C94C4000C94C40040
:100030000C94C4000C9474090C94C4000C94C40077
:100040000C94C4000C94C4000C94C4000C94C40020
:100050000C94C40000407A10F35A00A0724E1809A4
:100060000010A5D4E80000E87648170000E40B541F
:10007000020000CA9A3B000000E1F50500008096EE
:100080009800000040420F000000A0860100000020
:10009000102700000000E8030000000064000000DA
:1000A00000000A00000000000100000000002C76A3
:1000B000D888DC674F0823DFC1DFAE59E1B1B796BE
:1000C000E5E3E453C63AE651997696E8E6C284261B
:1000D000EB898C9B62ED407C6FFCEFBC9C9F40F2F7
:1000E000BAA56FA5F490055A2AF75C936B6CF96773
:1000F0006DC11BFCE0E40D47FEF520E6B500D0ED38
:10010000902E0300943577050080841E080000209F
:100110004E0A000000C80C333333330F986E12833D
:100120001141EF8D2114893BE65516CFFEE6DB1811
:10013000D1844B381BF77C1D901DA4BBE4242032D6
:1001400084725E228100C9F124ECA1E53D271124CF
:100150001FBECFE5D8E0DEBFCDBF12E0A0E6B0E025
:10016000EAE7F3E202C005900D92A034B107D9F797
:1001700013E0A0E4B2E001C01D92AF32B107E1F795
:100180000E9452020C94BB110C9400008F929F921B
:10019000AF92BF92CF92DF92EF92FF920F931F9395
:1001A000CF93DF9300D000D00F92CDB7DEB78C0194
:1001B0007B01FE01319685E0DF011D928A95E9F70A
:1001C0008E9A969AE7EAF1E63197F1F700C00000BF
:1001D000969883E991E10197F1F700C00000969AA3
:1001E0008E989DE09A95F1F7000086995EC0AAE18D
:1001F000AA95F1F700C0869B5AC0BAE1BA95F1F70B
:1002000000C06E010894C11CD11C0F2EF6E0AF2E69
:10021000BB24F02DAC0EBD1EE7E0F0E070E08824BA
:100220009924839449EC50E025C0019711F441C012
:10023000CA01869BFACF8AE08A95F1F7869B08C0AF
:10024000C401022E02C0880F991F0A94E2F7682B9E
:10025000CA0102C0019779F18699FCCF2150304044
:100260009FEF2F3F390721F7D6016D936D01AA1536
:10027000BB0519F09F01672FDBCF8E9A969AE7EAAC
:10028000F1E63197F1F700C0000089819B813A8146
:10029000380F390F2C81320F2D81321771F4D801AC
:1002A0009C93F701808380E009C08FEF07C08FEF38
:1002B00005C08FEF03C08FEF01C08FEF0F900F903D
:1002C0000F900F900F90DF91CF911F910F91FF90A2
:1002D000EF90DF90CF90BF90AF909F908F90089558
:1002E000CF93DF930F92CDB7DEB71982BE016F5F58
:1002F0007F4F0E94C6000F90DF91CF910895CF935A
:10030000DF930F92CDB7DEB7BC011982CE01019603
:100310000E94C6000F90DF91CF9108950E94C60001
:10032000089510BC85E089B98AB188618AB980B521
:10033000866880BD08955D9BFECF8CB90895CF93EC
:10034000DF93EC018881882331F021960E949B0184
:1003500089918823D9F7DF91CF910895FFCF5F9BD3
:10036000FECF8CB180935E02089580E487B987E860
:1003700086B9089597B18770982B97B9369A349BB0
:10038000FECF349A87EA91E60197F1F700C00000AA
:1003900084B195B10895EF92FF920F931F93CF937D
:1003A000DF93C0E4D2E001E412E0CE01B8010E9484
:1003B0008E0181E060E00E94C70480E060E00E945E
:1003C000790580E690E00E94E40480E061E00E940C
:1003D000790585E690E00E94E404CE01B8010E9410
:1003E0008E018F3FD9F1809141020F2EF2E6EF2E60
:1003F000F2E0FF2EF02D992787FD9095B7014AE096
:1004000050E00E947B0C60914002772767FD709559
:10041000872F972F0E94B50AC3E4D2E044E021E081
:100420008E010E94F30B86E060E00E947905C7010F
:100430000E94E40489E060E00E9479058BE690E088
:100440000E94E40486E061E00E947905CE010E94EA
:10045000E40480E790E00E94E4041DC081E060E0D5
:100460000E94C70481E060E00E94790582E790E085
:100470000E94E40482E060E00E94790581E890E057
:100480000E94E4048FE39DE0A3E081509040A040EF
:10049000E1F700C00000DF91CF911F910F91FF9015
:1004A000EF900895CF93DF93CDB7DEB7CA56D14012
:1004B0000FB6F894DEBF0FBECDBF80E00E948B0563
:1004C000D0980E94B50181E060E00E94C70484E9F1
:1004D00090E00E94E4048FEB97E2A9E08150904005
:1004E000A040E1F700C0000081E060E00E94C70486
:1004F00084EA90E00E94E4048FE79AE1A6E081504C
:100500009040A040E1F700C0000081E060E00E9460
:10051000C7048FEB97E2A9E081509040A040E1F73B
:1005200000C0000080EB90E00E94E4040E945806A6
:100530008FE39DE0A3E081509040A040E1F700C030
:10054000000081E060E00E94C70485EC90E00E941A
:10055000E4040E94420A0F2EFDECEF2EF0E0FF2E85
:10056000F02D0F2EFDEDCF2EF0E0DF2EF02D0F2E13
:10057000FEEE6F2EF0E07F2EF02D0F2EF0E0AF2E6E
:10058000F1E0BF2EF02D0F2EFCE08F2EF1E09F2E1C
:10059000F02D0F2EF0E34F2EF1E05F2EF02D0F2EF9
:1005A000F8E22F2EF1E03F2EF02D81E060E00E9476
:1005B000C70480E060E00E947905C7010E94E4045E
:1005C00004C08EE190E00E94CB01CE0101960E9412
:1005D00006088130B1F780E061E00E947905C6012C
:1005E0000E94E4048FE39DE0A3E081509040A0408E
:1005F000E1F700C0000081E060E00E94C70489814B
:10060000BE01615C7F4F0E944708813091F480E019
:1006100060E00E947905CE01CF960E94E4048FEB42
:1006200097E2A9E081509040A040E1F700C00000AF
:100630000CC0C3010E94E4048FEB97E2A9E0815053
:100640009040A040E1F700C0000081E060E00E941F
:10065000C704C5010E94E4048FE79AE1A6E0815037
:100660009040A040E1F700C000001B821C821D8268
:100670001E82FE01379688E3DF011D928A95E9F715
:10068000FE01339601900020E9F73197D4018BE009
:100690000D9001928150E1F78E010D5F1F4FC8014F
:1006A00062E672E00E94460CF80101900020E9F732
:1006B000319785E290E091838083F80101900020DA
:1006C000E9F7319780E29CE2A0E2B0E08083918379
:1006D000A283B383F80101900020E9F73197A7E1E5
:1006E000B1E08EE00D9001928150E1F78E010D5F37
:1006F0001F4FC80163E472E00E94460CF8010190AC
:100700000020E9F73197A5E2B1E083E00D90019276
:100710008150E1F7C8990DC0FE0133960190002089
:10072000E9F73197D10188E00D9001928150E1F70E
:100730000CC0FE01339601900020E9F73197D201F9
:100740008CE00D9001928150E1F781E060E00E9421
:10075000C7048CE391E0BE016D5F7F4FAE014E5F39
:100760005F4F0E94C208182F8FE79AE1A6E08150E0
:100770009040A040E1F700C0000080E061E00E94EE
:10078000790589E491E00E94E40489E061E00E9437
:1007900079058A8190E063E070E00E9413051130D2
:1007A00099F480E061E00E94790589E491E00E947B
:1007B000E40489E061E00E9479058A8190E063E0C9
:1007C00070E00E94130513C01D3F49F480E061E012
:1007D0000E94790581E591E00E94E40408C080E070
:1007E00061E00E9479058CE591E00E94E4048FE7C6
:1007F0009AE1A6E081509040A040E1F700C00000DF
:1008000089810E94AE07813009F4CFCE84E691E061
:100810000E94E4048FEB97E2A9E081509040A04051
:10082000E1F700C00000C1CECF93DF9300D000D02D
:100830000F92CDB7DEB781E060E00E94C7040F2EB3
:10084000F7E7AF2EF1E0BF2EF02D0F2EF0E78F2E41
:10085000F0E09F2EF02D80E00E94BA0164B175B1E6
:10086000709361026093600280E090E00E94B30A9E
:1008700020E030E040E85AE30E94690B20E030E0DD
:100880004AEF53E40E94690B20E030E040EC50E472
:100890000E944A0AF62EE72ED82EC92E862F9E2DAC
:1008A000AD2DBC2DBC01CD0145E020E08E010F5FD8
:1008B0001F4F0E94F30B81E060E00E94C70481E0BB
:1008C00060E00E947905C5010E94E40482E061E0D5
:1008D0000E947905C8010E94E404C4010E94E40456
:1008E0008FE996E8A1E081509040A040E1F700C078
:1008F00000008F2D9E2DAD2DBC2DBC01CD0120E023
:1009000030E040E752E40E94650B18168CF48F2DFE
:100910009E2DAD2DBC2DBC01CD0120E030E040EA84
:1009200052E40E94AF0A88231CF4A898A99893CF98
:100930008F2D9E2DAD2DBC2DBC01CD0120E030E0D2
:1009400040EA52E40E94650B18161CF4A89AA99A72
:1009500082CFA89AA8987FCF87B3807F87BB959ACC
:1009600093980000C49A000086B38295807F0000AF
:10097000C4980000C49A000096B30000C498000018
:10098000882384F3959887B38F6087BB0895282FB9
:1009900022952F708F70662311F4939801C0939A5B
:1009A0000000C49A98B3907F922B98BB0000C49823
:1009B0000000C49A98B3907F892B88BB0000C4982C
:1009C00000000E94AC0408950F931F93CF93DF9310
:1009D0008C01FC018081882309F18532A9F4E801AA
:1009E0002196F80181818053883020F461E00E94D3
:1009F000C7040EC085E261E00E94C704F80181814E
:100A000061E00E94C70404C061E00E94C704E801DD
:100A10008E010F5F1F4F89818823F9F6DF91CF91F7
:100A20001F910F910895EF92FF920F931F93CF9311
:100A3000DF9300D000D00F92CDB7DEB77B01FE016F
:100A4000319625E0DF011D922A95E9F7009761F0C4
:100A5000FE0136962AE030E0B9010E94CC0B829369
:100A6000862F972F0097C1F7BFEFEB16BFEFFB065E
:100A700069F42981222379F4FE01329600E010E026
:100A80000F5F1F4F21912223D9F307C005E010E02B
:100A90000E191F0902C000E010E0992324F48DE232
:100AA00061E00E94C70405301105BCF4E1E0F0E00C
:100AB000EC0FFD1F0E0F1F1F0F2EF6E0EF2EFF2471
:100AC000F02DEC0EFD1ED8018D918D01805D61E051
:100AD0000E94C7040E151F05B1F70F900F900F90DD
:100AE0000F900F90DF91CF911F910F91FF90EF909A
:100AF0000895843178F4623031F0633031F0613040
:100B000029F4806403C08C5E01C08C5A806860E068
:100B10000E94C70408950F931F93CF93DF93C82FAC
:100B20008BE49DE10197F1F700C0000087B38F606F
:100B300087BBBC9A8B9A8D9A88B3807F88BBC498F8
:100B4000959893980000C49AC19A0000C498000038
:100B50000E94AC048C2F8C6060E00E94C70488E285
:100B600060E00E94C70480E460E00E94C704C9E816
:100B7000D1E009EC11E0899161E00E94C704C0173F
:100B8000D107C9F780E060E00E947905DF91CF913D
:100B90001F910F910895FF920F931F93CF93DF93AF
:100BA000082FC92F0E94150A8DE00E94EF09E02F3F
:100BB000FC2FDF010D900020E9F7FA2EF01ACF2D5F
:100BC00090E0D92FCE01880F991FEC01CC0FDD1FCB
:100BD000CC0FDD1FC80FD91F2097D9F000E010E01F
:100BE0000E94F3098F1568F40F5F1F4F83EC99E0A3
:100BF0000197F1F700C000000C171D0789F78DEF72
:100C000009C08FEA92E06F2D70E00E94240A81E013
:100C100001C08DEFDF91CF911F910F91FF9008954B
:100C2000FC0181E090819D3009F480E08823B1F5DA
:100C300081E091819A3009F480E0882379F5242FAE
:100C40002250822F90E0DF01A80FB91F31E05C91A4
:100C50005D3009F430E0332319F58E0F9F1F31E02A
:100C6000DC0111968C9111978A3009F430E033231E
:100C7000B9F42330B8F09281DB018C919817A1F47C
:100C800033961196455080E005C021919D918F5F6C
:100C9000291761F48417C9F781E008958FEF08954B
:100CA0008FEF089581E008958EEF08958EEF0895F7
:100CB000CF93DF9387E690E00E94670989EC91E08B
:100CC0000E94CB05CAE0D0E00E94F309863050F4C0
:100CD00083EC99E00197F1F700C000002197A1F79C
:100CE0008DEF0DC0CFEAD2E0CE0166E070E00E9449
:100CF000240ACE016CEC71E046E00E941006DF9100
:100D0000CF910895CF92DF92EF92FF920F931F93AE
:100D1000CF937C0100E010E0C0E00F2EFFEACF2E61
:100D2000F2E0DF2EF02D08C00F5F1F4F89EF90E03B
:100D30000197F1F700C000000E94F309882319F41D
:100D40000E151F0588F30E151F0589F00E94C909AD
:100D5000F601EC0FF11D80838D3039F4CC2329F09E
:100D60000E94420A8C2F8F5F03C0CF5FE5CF80E0E7
:100D7000CF911F910F91FF90EF90DF90CF9008954A
:100D8000CF93DF938FEC91E00E94CB05CAE0D0E0D7
:100D90000E94F309843150F483EC99E00197F1F754
:100DA00000C000002197A1F78DEF15C08FEA92E0F7
:100DB00064E170E00E94240A8091BA02813331F02C
:100DC000823331F0853331F485E005C081E003C022
:100DD00082E001C083E6DF91CF910895CF93DF9346
:100DE0000E94420A88ED91E00E94CB05CEE1D0E05E
:100DF0000E94F309863150F483EC99E00197F1F7F2
:100E000000C000002197A1F78DEF0CC08FEA92E09F
:100E100066E170E00E94240A81E09091BC02913367
:100E200009F080E0DF91CF9108950F931F93CF9346
:100E3000DF93182F092F0E94420A83EE91E00E944F
:100E4000CB0588EE93E00E9482068823F1F08FEABA
:100E500092E062E270E00E94510CEC012196CE011A
:100E600062E270E00E94510CFC011082812F902FF1
:100E7000BE010E945C0CE12FF02FDF010D900020DD
:100E8000E9F711978A2F811B01C08DEFDF91CF9178
:100E90001F910F910895CF93DF93EC010E94420AB6
:100EA0008CEE91E00E94CB0588EE93E00E948206D2
:100EB000882371F06FEA72E0FB01E80FF11D3197B2
:100EC00010826E5F7F4FCE010E945C0C81E001C0FA
:100ED0008DEFDF91CF910895CF93DF93EC010E94C6
:100EE000420A83EF91E00E94CB0588EE93E00E94D6
:100EF0008206882371F06FEA72E0FB01E80FF11DB2
:100F0000319710826E5F7F4FCE010E945C0C81E0B2
:100F100001C08DEFDF91CF910895CF93DF93EC0166
:100F20000E94420A8AEF91E00E94CB0588EE93E08E
:100F30000E948206882371F06FEA72E0FB01E80FDD
:100F4000F11D319710826E5F7F4FCE010E945C0CC5
:100F500081E001C08DEFDF91CF910895FF920F9353
:100F60001F93CF93DF93CDB7DEB760970FB6F8949A
:100F7000DEBF0FBECDBFF82E0E94420A00D000D0C7
:100F800000D0EDB7FEB731968E010F5F1F4FADB7A2
:100F9000BEB712961C930E93119781E092E0938353
:100FA0008283F48215820E94A40C8DB79EB70696A8
:100FB0000FB6F8949EBF0FBE8DBFC8010E94CB052F
:100FC00088EE93E00E948206882389F02FEA32E0BF
:100FD000F901E80FF11D31971082C90102966CECFE
:100FE00071E00E94330C009721F481E003C08DEF83
:100FF00001C08EEF60960FB6F894DEBF0FBECDBF76
:10100000DF91CF911F910F91FF9008950F931F9340
:10101000CF93DF9300D000D0CDB7DEB78C018AEF3D
:1010200090E00E948206882331F12FEA32E0F90134
:10103000E80FF11D31971082C90102966CE072E051
:1010400046E050E00E94630C0097B9F48FEA92E00A
:101050006CE270E00E94510CBC016F5F7F4FCE01CB
:1010600001960E945C0CCE0101960E94150CF801BD
:10107000808381E003C08DEF01C08EEF0F900F9051
:101080000F900F90DF91CF911F910F910895CF9204
:10109000DF92FF920F931F93CF93DF93CDB7DEB70D
:1010A00060970FB6F894DEBF0FBECDBFF82E6B0170
:1010B0000E94420A00D000D000D0EDB7FEB73196B2
:1010C0008E010F5F1F4FADB7BEB712961C930E93E4
:1010D000119783E192E093838283F48215820E94C8
:1010E000A40C8DB79EB706960FB6F8949EBF0FBEA0
:1010F0008DBFC8010E94CB0588EE93E00E94820656
:10110000882359F12FEA32E0F901E80FF11D3197F8
:101110001082C90102966EE172E00E94330C0097C2
:10112000F1F081EB92E06CEC71E00E94330C0097DF
:10113000C1F088EE93E00E9482068823A1F06FEA56
:1011400072E0FB01E80FF11D319710826F5F7F4F56
:10115000C6010E945C0C81E007C08DEF05C084E6EB
:1011600003C085E601C08DEF60960FB6F894DEBF30
:101170000FBECDBFDF91CF911F910F91FF90DF90F8
:10118000CF900895AF92BF92CF92DF92EF92FF92ED
:101190000F931F93CF93DF93CDB7DEB769970FB649
:1011A000F894DEBF0FBECDBF6C01162F072F5A017A
:1011B0000E94420A00D000D000D0EDB7FEB73196B1
:1011C0007E010894E11CF11CADB7BEB71296FC92EB
:1011D000EE9211978EE292E093838283D582C4824D
:1011E0000E94A40C22E22987F70101900020E9F770
:1011F0003197EE198E2F90E0F701E80FF91F208349
:101200008C0F9D1FFC0112828DB79EB706960FB6FC
:10121000F8949EBF0FBE8DBFC7010E94CB05A7EA01
:10122000B1E61197F1F700C00000812F902F0E94C6
:10123000150A8AE10E94EF090E94F309E12FF02FBD
:10124000DF010D900020E9F7AE1BBF0B149690E074
:101250008A179B0788F38FEA92E0BD010E94240A57
:1012600080E797E10E9482068823F9F02FEA32E0B6
:10127000F901E80FF11D31971082C90102966AE366
:1012800072E045E050E00E94630C009751F487EB58
:1012900092E00E94150CF50180830E94420A81E0D1
:1012A00005C00E94420A8EEF01C08DEF69960FB60D
:1012B000F894DEBF0FBECDBFDF91CF911F910F918C
:1012C000FF90EF90DF90CF90BF90AF9008952FEFF9
:1012D00020936E0220936D0290BD89B986E880BD8F
:1012E00088E98AB9789408951F920F920FB60F92E9
:1012F00011242F933F934F938F939F93EF93FF93DB
:101300004CB180916E028F3321F480916D0288235D
:1013100079F020916E0280916D02332727FD309580
:101320002F5F3F4F992787FD90952817390759F46C
:1013300080916D028F5F80936D0280916D02803489
:1013400011F410926D0280916E028F3319F4109295
:101350006E0205C080916E028F5F80936E02E091F5
:101360006E02FF27E7FDF095E159FD4F4083809124
:101370006D028F3F11F410926D02FF91EF919F91DA
:101380008F914F913F912F910F900FBE0F901F9013
:10139000189580916D028F3F01F1E0916D02FF275A
:1013A000E7FDF095E159FD4F808120916D0290910C
:1013B0006E02291731F49FEF90936E0290936D02A5
:1013C000089590916D029F5F90936D0290916D02D0
:1013D000903421F410926D02089580E008955D9B91
:1013E000FECF8CB9089580916D028F3FD1F090911E
:1013F0006D0280916E0298173CF480916E0290917C
:101400006D028F5F891B089590916D0280916E022D
:1014100089174CF480916E0290916D028F5B891B4D
:10142000089580E0089581E00895CF93DF93EC0163
:101430008881882331F021960E94EF0989918823C1
:10144000D9F7DF91CF910895EF92FF920F931F93F9
:10145000CF93DF93EB01209771F0E82EF92E00E097
:1014600010E00E94C909F70181937F010F5F1F4FB0
:101470000C171D07B1F7DF91CF911F910F91FF90CE
:10148000EF90089502C00E94C9090E94F3098823C1
:10149000D1F708955058BB27AA270ED0DCC0CDD075
:1014A00030F0D2D020F031F49F3F11F41EF4C2C0CE
:1014B0000EF4E095E7FBB8C0E92FDED080F3BA1751
:1014C000620773078407950718F071F49EF5F6C05C
:1014D0000EF4E0950B2EBA2FA02D0B01B90190014F
:1014E0000C01CA01A0011124FF27591B99F0593F93
:1014F00050F4503E68F11A16F040A22F232F342FDB
:101500004427585FF3CF469537952795A795F04028
:101510005395C9F77EF41F16BA0B620B730B840B3D
:10152000BAF09150A1F0FF0FBB1F661F771F881FF5
:10153000C2F70EC0BA0F621F731F841F48F487954D
:1015400077956795B795F7959E3F08F0B3CF93953C
:10155000880F08F09927EE0F97958795089540D04A
:1015600008F481E00895E89409C097FB3EF4909553
:101570008095709561957F4F8F4F9F4F9923A9F06C
:10158000F92F96E9BB279395F695879577956795FB
:10159000B795F111F8CFFAF4BB0F11F460FF1BC03F
:1015A0006F5F7F4F8F4F9F4F16C0882311F096E9D2
:1015B00011C0772321F09EE8872F762F05C0662380
:1015C00071F096E8862F70E060E02AF09A95660F39
:1015D000771F881FDAF7880F9695879597F90895F2
:1015E000990F0008550FAA0BE0E8FEEF1616170634
:1015F000E807F907C0F012161306E407F50798F09C
:10160000621B730B840B950B39F40A2661F0232BB4
:10161000242B252B21F408950A2609F4A140A69530
:101620008FEF811D811D089597F99F6780E870E015
:1016300060E008959FEF80EC089500240A94161648
:10164000170618060906089500240A9412161306B0
:10165000140605060895092E0394000C11F488233E
:1016600052F0BB0F40F4BF2B11F460FF04C06F5F5A
:101670007F4F8F4F9F4F089557FD9058440F551F30
:1016800059F05F3F71F04795880F97FB991F61F004
:101690009F3F79F087950895121613061406551F7B
:1016A000F2CF4695F1DF08C0161617061806991FE7
:1016B000F1CF86957105610508940895E894BB27DC
:1016C00066277727CB0197F908958ADF08F48FEF13
:1016D00008950BD0C0CFB1DF28F0B6DF18F0952306
:1016E00009F0A2CFA7CF1124EACFC6DFA0F3959FC0
:1016F000D1F3950F50E0551F629FF001729FBB27F9
:10170000F00DB11D639FAA27F00DB11DAA1F649FA4
:101710006627B00DA11D661F829F2227B00DA11D57
:10172000621F739FB00DA11D621F839FA00D611DDD
:10173000221F749F3327A00D611D231F849F600DFE
:10174000211D822F762F6A2F11249F5750408AF037
:10175000E1F088234AF0EE0FFF1FBB1F661F771FC3
:10176000881F91505040A9F79E3F510570F05CCF03
:10177000A6CF5F3FECF3983EDCF3869577956795AF
:10178000B795F795E7959F5FC1F7FE2B880F911DE1
:101790009695879597F9089597FB092E07260AD005
:1017A00077FD04D00CD006D000201AF47095619516
:1017B0007F4F0895F6F7909581959F4F0895AA1B46
:1017C000BB1B51E107C0AA1FBB1FA617B70710F02C
:1017D000A61BB70B881F991F5A95A9F7809590955E
:1017E000BC01CD010895EF920F931F93CF93322F39
:1017F000C02F47FF02C0A4E101C0A4E0E42FFF27EF
:10180000E7FDF095F7FF03C0F095E195FF4F4C2FF2
:10181000512F2E2F032FEA2E0E94A40E8C2F912FD2
:10182000CF911F910F91EF900895FC018827992780
:10183000E89421912032E9F3293010F02E30C8F3DA
:101840002B3241F02D3239F4689404C00E949C0C74
:10185000820F911D219120532A30C0F31EF49095E0
:1018600081959F4F0895FB01DC018D9181341CF01F
:101870008B350CF4805E619161341CF06B350CF497
:10188000605E861B611189F3990B0895FB01DC01F1
:101890000D900020E9F7119701900D920020E1F7DB
:1018A0000895FC018191861721F08823D9F79927A3
:1018B00008953197CF010895FB01DC0101900D924D
:1018C0000020E1F70895FB01DC014150504088F011
:1018D0008D9181341CF08B350CF4805E6191613404
:1018E0001CF06B350CF4605E861B611171F3990B73
:1018F0000895881BFCCFFB019F01E8944230C4F09F
:101900004532B4F44A3029F497FB1EF49095819542
:101910009F4F642F77270E94DF0B805D8A330CF086
:10192000895D8193CB010097A1F716F45DE2519395
:101930001082C9010C94EA107AE0979F902D879F3E
:10194000802D910D11240895AEE0B0E0EAEAFCE0AC
:101950000C9492110D891E8986E08C831A83098369
:101960008FEF9FE79E838D83AE01475E5F4FCE0171
:1019700001966F89788D0E94C60CEF81F885E00F83
:10198000F11F10822E96E4E00C94AE11ADE0B0E0B1
:10199000ECECFCE00C9484113C017D876C875A01CF
:1019A000FC0117821682838181FFC8C12E01089431
:1019B000411C511CF3019381EC85FD8593FD8591BC
:1019C00093FF8191FD87EC87882309F4B3C18532A9
:1019D00041F493FD859193FF8191FD87EC878532DA
:1019E00029F490E0B3010E94FA10E4CFFF24EE2422
:1019F00010E01032B0F48B3269F08C3228F480326F
:101A000051F0833271F40BC08D3239F0803349F4D8
:101A100011602CC01260146029C0186027C01061CA
:101A200025C017FD2EC0282F20532A3098F416FF0A
:101A300008C08F2D880FF82EFF0CFF0CF80EF20E49
:101A400015C08E2D880FE82EEE0CEE0CE80EE20E7F
:101A500010620CC08E3221F416FD6CC1106406C0F9
:101A60008C3611F4106802C0883659F4EC85FD8577
:101A700093FD859193FF8191FD87EC87882309F081
:101A8000B8CF982F9554933018F09052933038F483
:101A900024E030E0A20EB31E3FE339830FC083364B
:101AA00031F0833781F0833509F05AC022C0F50147
:101AB0008081898322E030E0A20EB31E21E0C22E95
:101AC000D12C420114C092E0292E312C2A0C3B1C4F
:101AD000F5018080918016FF03C06F2D70E002C079
:101AE0006FEF7FEFC4010E94DF106C0151011F777F
:101AF00015C082E0282E312C2A0C3B1CF501808079
:101B0000918016FF03C06F2D70E002C06FEF7FEF72
:101B1000C4010E94D4106C011068510113FD1CC057
:101B200006C080E290E0B3010E94FA10EA948E2D84
:101B300090E0C816D906A8F30FC0F40117FD8591EF
:101B400017FF81914F0190E0B3010E94FA10E1105C
:101B5000EA940894C108D108C114D10471F7E7C010
:101B6000843611F0893651F5F50117FF07C08081E1
:101B70009181A281B38124E030E008C0808191810D
:101B8000AA2797FDA095BA2F22E030E0A20EB31E3F
:101B9000012F0F76B7FF08C0B095A095909581955D
:101BA0009F4FAF4FBF4F0068BC01CD01A2012AE09B
:101BB00030E00E942611D82ED4183FC0853721F47A
:101BC0001F7E2AE030E020C0197F8F36A9F08037D1
:101BD00020F4883509F0AEC00BC0803721F088377B
:101BE00009F0A8C001C0106114FF09C0146007C04B
:101BF00014FF08C0166006C028E030E005C020E1F0
:101C000030E002C020E132E0F50117FF07C060813B
:101C100071818281938144E050E006C060817181CE
:101C200080E090E042E050E0A40EB51EA2010E94C8
:101C30002611D82ED418012F0F7706FF09C00E7F6A
:101C4000DF1430F404FF06C002FD04C00F7E02C0A2
:101C50001D2D01C01F2D802F90E004FF0CC0FE0140
:101C6000ED0DF11D2081203311F4097E09C002FF22
:101C700006C01E5F05C086789070009709F01F5F50
:101C8000802E992403FD12C000FF0DC0FD2C1E15EF
:101C900050F4FE0CF11A1E2D06C080E290E0B30154
:101CA0000E94FA101F5F1E15C0F304C01E1510F429
:101CB000E11A01C0EE2484FE0FC080E390E0B3017E
:101CC0000E94FA1082FE1FC081FE03C088E590E0EA
:101CD00010C088E790E00DC0C4018678907000972E
:101CE00091F081FC02C080E201C08BE207FD8DE231
:101CF00090E0B3010E94FA1006C080E390E0B301C7
:101D00000E94FA10FA94DF14C0F3DA94F201ED0D98
:101D1000F11D808190E0B3010E94FA10DD20A9F747
:101D200006C080E290E0B3010E94FA10EA94EE202F
:101D3000C1F740CEF3018681978102C08FEF9FEFFC
:101D40002D96E2E10C94A011A9E0B0E0EAEAFEE0F1
:101D50000C9488116A01122FF02E2BE3201718F033
:101D6000B02EB39402C03CE3B32EAE014F5F5F4F81
:101D700027E00B2D0E94FC0FBC01A981B0E0CD0132
:101D8000897090708130910531F0E1FC06C0E0FE71
:101D900006C040E205C04DE203C04BE201C040E096
:101DA000A3FF36C0442311F084E001C083E0811713
:101DB00010F4181B01C010E0E4FC0BC0912FF601D9
:101DC00080E202C0819391509923E1F7C10ED11CAA
:101DD00010E0442319F0F60141936F01E2FE05C0C3
:101DE0008EE4F601808391E404C08EE6F6018083E0
:101DF00091E69183828383E090E0C80ED91E812F03
:101E0000F60190E202C0919381508823E1F73AC035
:101E1000A2FF3FC0442311F084E001C083E081179A
:101E200010F4181B01C010E0E4FC0BC0912FF60168
:101E300080E202C0819391509923E1F7C10ED11C39
:101E400010E0442319F0F60141936F01E2FE07C050
:101E500089E4F60180838EE4818386E406C089E606
:101E6000F60180838EE6818386E6828383E090E0BC
:101E7000C80ED91E812FF60190E202C091938150C5
:101E80008823E1F7C10ED11CF60110828EEF9FEF7F
:101E9000AFC021E030E0442311F420E030E016161A
:101EA00017061CF4CB01019602C081E090E0280FD8
:101EB000391FFF2021F08F2D90E0019602C080E0B5
:101EC00090E0820F931F212F30E0821793071CF4BC
:101ED000512F581B01C050E08E2D90E09C012071C5
:101EE0003070E4FC0DC0E3FC0BC0852FF60190E2DE
:101EF00002C0919381508823E1F7C50ED11C50E0B8
:101F0000442319F0F60141936F012115310559F46D
:101F1000852FF60190E302C0919381508823E1F769
:101F2000C50ED11C50E0B60E4A8120E1622E712C04
:101F30006A227B22A4FF03C0413309F4BA941B1424
:101F40002CF48B2D893018F088E001C081E09B01D2
:101F500077FF02C020E030E0A0E0B0E09EE2E92E92
:101F60004B01881A9108CB01821B930B8E010F5FE6
:101F70001F4F080F191F8F2D90E0AA24BB24A81A09
:101F8000B90AFFEF2F3F3F0719F4F601E1926F0105
:101F90006217730744F0821693062CF4F801EA0FD7
:101FA000FB1F818101C080E32150304011962A152A
:101FB0003B0524F0F60181936F01E3CF2617370725
:101FC00041F4463328F4453321F46114710409F4D3
:101FD00081E3F6018193852FDF0190E202C09D939A
:101FE00081508823E1F7E50FF11D108280E090E039
:101FF0002996EEE00C94A411283008F027E033274E
:10200000DA01990F311D87FD916000966105710518
:1020100039F432602E5F3D9330E32A95E1F708955D
:102020009F3F30F080387105610509F03C5F3C5FEF
:102030003D93913008F08068911DDF93CF931F93FB
:102040000F93FF92EF92192F987F9695E92F96950F
:102050009695E90FFF27E255FF4F99273327EE2486
:10206000FF24A701E70105900894079428F4360F90
:10207000E71EF81E491F511D660F771F881F991F05
:102080000694A1F70590079428F4E70EF81E491F5F
:10209000561FC11D770F881F991F661F0694A1F751
:1020A0000590079428F4F80E491F561FC71FD11D2D
:1020B000880F991F661F771F0694A1F70590079454
:1020C00020F4490F561FC71FD81F990F661F771F8F
:1020D000881F0694A9F784911095177041F0D69542
:1020E000C79557954795F794E7941A95C1F7E4E596
:1020F000F0E0689415901591359165919591059052
:102100007FE27395E118F10A430B560BC90BD00916
:10211000C0F7E10CF11E431F561FC91FD01D7EF4EE
:10212000703311F48A95E6CFE894015030F0080F2F
:102130000AF40027021708F4202F2395022F7A3380
:1021400028F079E37D932A95E9F710C07D932A95CD
:1021500089F6069497956795379517951794E11822
:10216000F10A430B560BC90BD00998F023957E91C9
:1021700073957A3308F070E37C932013B8F77E915F
:1021800070617D9330F0839571E37D9370E32A95C0
:10219000E1F71124EF90FF900F911F91CF91DF9104
:1021A000992787FD90950895FC0105906150704036
:1021B0000110D8F7809590958E0F9F1F0895FC0110
:1021C0006150704001900110D8F7809590958E0F66
:1021D0009F1F0895DC01FC01672F71917723E1F7C0
:1021E000329704C07C916D9370836291AE17BF07E4
:1021F000C8F308950F931F93CF93DF938C01EB01E6
:102200008B8181FF1BC082FF0DC02E813F818C819D
:102210009D812817390764F4E881F9810193F983D6
:10222000E88306C0E885F985802F0995009731F489
:102230008E819F8101969F838E8302C00FEF1FEFD7
:10224000C801DF91CF911F910F910895FA01AA273C
:10225000283051F1203181F1E8946F936E7F6E5FE9
:102260007F4F8F4F9F4FAF4FB1E03ED0B4E03CD097
:10227000670F781F891F9A1FA11D680F791F8A1F7A
:10228000911DA11D6A0F711D811D911DA11D20D0E1
:1022900009F468943F912AE0269F11243019305D9B
:1022A0003193DEF6CF010895462F4770405D41938C
:1022B000B3E00FD0C9F7F6CF462F4F70405D4A33D9
:1022C00018F0495D31FD4052419302D0A9F7EACFA1
:1022D000B4E0A6959795879577956795BA95C9F7D0
:1022E00000976105710508959B01AC010A2E0694C3
:1022F0005795479537952795BA95C9F7620F731F7C
:10230000841F951FA01D08952F923F924F925F92B8
:102310006F927F928F929F92AF92BF92CF92DF92F5
:10232000EF92FF920F931F93CF93DF93CDB7DEB75A
:10233000CA1BDB0B0FB6F894DEBF0FBECDBF0994EE
:102340002A88398848885F846E847D848C849B8445
:10235000AA84B984C884DF80EE80FD800C811B8153
:10236000AA81B981CE0FD11D0FB6F894DEBF0FBE82
:0A237000CDBFED010895F894FFCFF2
:10237A0048756D3A0054656D703A00252052480040
:10238A004300496E7465726E616C204572726F7299
:10239A000050726F63657373205465726D696E6164
:1023AA00746564005465616D20346578706C6F7271
:1023BA00657273004C6F6164696E672E2E2E2E0053
:1023CA0047534D20496E697469616C697A696E6711
:1023DA00202E2E2E0057616974696E670057616955
:1023EA0074696E6720666F72206D7367004D53477C
:1023FA002052656365697665642020202000457255
:10240A00722052656164696E67204D7367202100EE
:10241A0053656E64696E67204D73670048756D6910
:10242A0064697479203A0054656D706572617475D7
:10243A007265203A004320005261696E696E670036
:10244A004E6F74205261696E696E67002B3934379A
:10245A0038383830313836330053756363657373EF
:10246A000054696D65206F75742021004661696C9E
:10247A00202021004572722044656C6574696E677C
:10248A00204D736720210054656D70657261747503
:10249A0072650068656C6C6F000000040E04000031
:1024AA000000040E1F0E04000000010105051515A9
:1024BA0000000000040414140000000000001010C2
:1024CA00001F0E040404040400110A040A11000087
:1024DA00001E1F1F1F111F1F004154004F4B0041B8
:1024EA00542B435245473F0041542B43534D494EC9
:1024FA00533F0041542B4353504E3F0041542B4706
:10250A00534E0041542B474D490041542B474D4DE2
:10251A000041542B434D47443D2564002B434D5401
:10252A00493A0041542B434D47523D2564002B4301
:10253A004D53204552524F523A20353137004154BB
:10254A002B434D47533D20257300434D47533A00D3
:00000001FF
